S01300004D617374657220636F64652E73726563EA
S11300000C943D000C945A000C945A000C945A0021
S11300100C945A000C945A000C945A000C945A00F4
S11300200C945A000C945A000C94BB080C945A007B
S11300300C945A000C945A000C945A000C945A00D4
S11300400C945A000C945A000C945A000C945A00C4
S11300500C945A00EE064207C207C807CE07D4071D
S1130060DE078407EA07E407E9065009580960092E
S11300706809700987098009780911241FBECFE532
S1130080D8E0DEBFCDBF12E0A0E6B0E0E4E4F4E1E6
S113009002C005900D92AE38B107D9F722E0AEE860
S11300A0B2E001C01D92A139B207E1F70E94CB036F
S11300B00C94200A0C940000823419F118F4813451
S11300C039F008958334B1F1843409F44CC00895AF
S11300D0413059F42AB381E090E002C0880F991F9F
S11300E06A95E2F7822B8ABB08952AB381E090E0F7
S11300F002C0880F991F6A95E2F7809582238ABB14
S11301000895413059F427B381E090E002C0880F8C
S1130110991F6A95E2F7822B87BB089527B381E084
S113012090E002C0880F991F6A95E2F780958223B8
S113013087BB0895413059F424B381E090E002C0B4
S1130140880F991F6A95E2F7822B84BB089524B324
S113015081E090E002C0880F991F6A95E2F78095CC
S1130160822384BB0895413059F421B381E090E0A7
S113017002C0880F991F6A95E2F7822B81BB08950C
S113018021B381E090E002C0880F991F6A95E2F7DD
S11301908095822381BB0895823419F118F4813447
S11301A039F008958334B1F1843409F44CC00895CE
S11301B0413059F42BB381E090E002C0880F991FBD
S11301C06A95E2F7822B8BBB08952BB381E090E014
S11301D002C0880F991F6A95E2F7809582238BBB32
S11301E00895413059F428B381E090E002C0880FAB
S11301F0991F6A95E2F7822B88BB089528B381E0A2
S113020090E002C0880F991F6A95E2F780958223D7
S113021088BB0895413059F425B381E090E002C0D1
S1130220880F991F6A95E2F7822B85BB089525B341
S113023081E090E002C0880F991F6A95E2F78095EB
S1130240822385BB0895413059F422B381E090E0C4
S113025002C0880F991F6A95E2F7822B82BB08952A
S113026022B381E090E002C0880F991F6A95E2F7FB
S11302708095822382BB08958234D9F018F48134A6
S113028031F04DC0833439F18434B9F148C029B315
S113029081E090E0062E02C0880F991F0A94E2F7CD
S11302A030E08223932302C0959587956A95E2F7FF
S11302B0089526B381E090E0062E02C0880F991FAE
S11302C00A94E2F730E08223932302C09595879540
S11302D06A95E2F7089523B381E090E0062E02C008
S11302E0880F991F0A94E2F730E08223932302C017
S11302F0959587956A95E2F7089520B381E090E09B
S1130300062E02C0880F991F0A94E2F730E0822378
S1130310932302C0959587956A95E2F7089580E046
S11303200895823459F018F4813431F008958334F7
S113033039F0843439F008956BBB089568BB08958F
S113034065BB089562BB0895823461F118F4813469
S113035041F00895833409F446C0843409F464C038
S11303600895413099F480B78B7F80BF2AB381E030
S113037090E002C0880F991F6A95E2F7982F909534
S113038092239ABB9BB3892B8BBB08952BB381E03B
S113039090E002C0880F991F6A95E2F78095822346
S11303A08BBB0895413099F480B78B7F80BF27B30E
S11303B081E090E002C0880F991F6A95E2F7982FB8
S11303C09095922397BB98B3892B88BB089528B343
S11303D081E090E002C0880F991F6A95E2F780954A
S11303E0822388BB0895413099F480B78B7F80BF06
S11303F024B381E090E002C0880F991F6A95E2F768
S1130400982F9095922394BB95B3892B85BB08951F
S113041025B381E090E002C0880F991F6A95E2F746
S11304208095822385BB0895413099F480B78B7FF2
S113043080BF21B381E090E002C0880F991F6A95C4
S1130440E2F7982F9095922391BB92B3892B82BBAC
S1130450089522B381E090E002C0880F991F6A9545
S1130460E2F78095822382BB0895E199FECF9FBB7A
S11304708EBBE09A8DB30895E199FECF41155105E5
S113048091F0460F571FFB019C01261B370BB90146
S11304909B012E0F3F1F3FBB2EBBE09A9DB3919350
S11304A0E417F507A9F70895E199FECF9FBB8EBB2A
S11304B0E09A8DB3861719F06DBBE29AE19A08951C
S11304C041155105C9F0460F571FFB019C01261B1E
S11304D0370BB901E199FECF9B012E0F3F1F3FBBA4
S11304E02EBBE09A2DB39191291719F09DBBE29A86
S11304F0E19AE417F50771F7089541E060E084E4B8
S11305000E945C0041E061E084E40E945C0041E000
S113051062E084E40E945C0041E063E084E40E94C1
S11305205C0040E064E084E40E945C0040E065E03C
S113053084E40E945C0040E066E084E40E945C0085
S113054040E067E084E40E945C0041E064E084E40D
S11305500E94A40141E065E084E40E94A40141E01A
S113056066E084E40E94A40141E067E084E40E9420
S1130570A4010895EF92FF920F931F93CF93DF93FB
S1130580CDB7DEB760970FB6F894DEBF0FBECDBF10
S113059080E1E0E6F0E0DE01119601900D928A958B
S11305A0E1F7E12CF12C0FEF41E060E084E40E94DC
S11305B0CC0041E061E084E40E94CC0041E062E0D0
S11305C084E40E94CC0041E063E084E40E94CC0017
S11305D08FE39CE90197F1F700C0000040E06E2D25
S11305E084E40E94CC0010E064E0610F84E40E9483
S11305F03C0181110FC0F701EE0FFF1FEE0FFF1F2B
S113060081E090E08C0F9D1FE80FF91FE10FF11DB1
S1130610008103C01F5F143039F79FEFE91AF90A0C
S113062084E0E816F10409F0BFCF802F60960FB67E
S1130630F894DEBF0FBECDBFDF91CF911F910F9114
S1130640FF90EF90089541E060E082E40E94CC00C6
S11306508FE99FE00197F1F700C0000040E060E0FF
S113066082E40E94CC008FE99FE00197F1F700C07B
S113067000000895682F81E40E94910140E061E048
S113068082E40E94CC000E942303089541E060E0CC
S113069081E40E945C0041E061E081E40E945C002E
S11306A041E062E081E40E945C0041E063E081E4B7
S11306B00E945C0041E064E081E40E945C0041E04F
S11306C065E081E40E945C0041E066E081E40E9410
S11306D05C0041E067E081E40E945C0041E060E08E
S11306E082E40E945C0041E062E082E40E945C00DB
S11306F041E061E082E40E945C0040E062E082E468
S11307000E94CC0088E30E943A0381E00E943A03ED
S11307108EE00E943A038FE19EE40197F1F700C056
S113072000000895682F81E40E94910141E061E096
S113073082E40E94CC000E9423030895CF93DF93A8
S1130740EC018881882331F021960E9492038991DB
S11307508111FBCFDF91CF91089581E00E943A038C
S11307600895813019F48FE7860F06C0823019F49A
S11307708FEB860F01C080E80E943A03089541E0A0
S11307800E945C00089541E00E94CC00089540E07E
S11307900E94CC000895CF93DF93CDB7DEB728979E
S11307A00FB6F894DEBF0FBECDBF60E083E40E94B5
S11307B0BF0361E083E40E94BF0362E083E40E941C
S11307C0BF030E9446030E947D020E94EE0980E757
S11307D090E00E949E0361E082E00E94B10381E800
S11307E090E00E949E032FEF39E688E121503040CB
S11307F08040E1F700C000000E94AD0380E091E07A
S11308000E943502813039F481E091E00E94350282
S1130810813009F4CAC08DE890E00E949E0361E033
S113082082E00E94B10387E990E00E949E039FEF5B
S1130830E9E6F8E19150E040F040E1F700C0000043
S11308400E94AD0382EA90E00E949E0361E082E090
S11308500E94B10381EB90E00E949E038FEF898395
S11308608A838B838C839E012F5F3F4F79016901BB
S11308701CE00E94BA028F3FE1F3F60181936F01FD
S11308800E949203FFEF22E537E0F1502040304010
S1130890E1F700C00000612F82E00E94B1038AE208
S11308A00E9492038FEF90E7E2E081509040E04095
S11308B0E1F700C000001F5F1031D9F644E050E0BA
S11308C0BE016F5F7F4F82E091E00E94600261E0B1
S11308D080E091E00E9454020E94AD038DEB90E011
S11308E00E949E03FFEF24E33CE0F150204030409F
S11308F0E1F700C000000E94AD0388EC90E00E9484
S11309009E0361E082E00E94B10387ED90E00E94C3
S11309109E031CE00E94BA028F3FE1F3F70181932A
S11309207F010E949203FFEF22E537E0F15020405F
S11309303040E1F700C00000612F82E00E94B10363
S11309408AE20E9492038FEF90E7E2E081509040A8
S1130950E040E1F700C000001F5F1031D9F644E029
S113096050E0BE016F5F7F4F86E091E00E9460021D
S113097061E081E091E00E9454020E94AD038DEB9E
S113098090E00E949E03FFEF24E33CE0F1502040FE
S11309903040E1F700C000000E94AD0360E08AE04F
S11309A091E00E945402B12C05C08AE091E00E94BB
S11309B03502B82EF12C22242A940F2EF2E39F2E16
S11309C0F02DD22C0F2EFBE0CF2EF02D0F2EF9E0C0
S11309D0AF2EF02D80918E02813001F50E94100A15
S11309E01092900210928F0210928E0261E083E4C2
S11309F00E94C70360E083E40E94C7030E94AD0322
S1130A0083EE90E00E949E038FEF99E6E8E1815027
S1130A109040E040E1F700C0000002C0F110B3C113
S1130A2000E0122DF1E0BF1227C00E94AD0383EF56
S1130A3090E00E949E0361E082E00E94B10381E0A5
S1130A4091E00E949E0362E083E40E94C3032AEAC9
S1130A5036EE86E991E02150304080409040D9F74D
S1130A60000062E083E40E94C70360E08AE091E052
S1130A700E94540200E0B12C0E94AD0381E191E098
S1130A800E949E0361E082E00E94B1038FE191E045
S1130A900E949E031F3F29F40E94BA02182F8F3F21
S1130AA0D9F380ED810F823088F00E94AD038FE28C
S1130AB091E00E949E03EFEFF9E628E1E150F04057
S1130AC02040E1F700C000001D2DACCFDD82DE82A6
S1130AD0DF82D886D982DA82DB82DC82103321F08D
S1130AE0113309F4A6C04BC1892C801A0E94AD03AE
S1130AF08CE391E00E949E0361E082E00E94B103D6
S1130B0087E491E00E949E033FEF81EE94E0315030
S1130B1080409040E1F700C000007E01E5E0EE0E69
S1130B20F11C1CE00E94BA028F3FE1F3F7018193AC
S1130B307F010E949203FFEF22E537E0F15020404D
S1130B403040E1F700C00000612F82E00E94B10351
S1130B508AE20E9492038FEF90E7E2E08150904096
S1130B60E040E1F700C000001F5F1031D9F644E017
S1130B7050E0BE016F5F7F4F82E091E00E943C0233
S1130B8044E0BE016F5F7F4FCE0105960E94D208FC
S1130B90813021F50E94AD0383E591E00E949E031C
S1130BA061E082E00E94B1038CE391E00E949E0325
S1130BB0FFEF24E33CE0F15020403040E1F700C077
S1130BC0000060E083E40E94C3030E94FA090E94CB
S1130BD0AD0300E01D2DFF24F394D2C00F5F0E94EB
S1130BE0AD038EE591E00E949E0361E082E00E94E5
S1130BF0B10389E691E00E949E03882D0E9492032E
S1130C008FEF99E6E8E181509040E040E1F700C0C1
S1130C1000000E94AD038A94033008F467CF61E0BA
S1130C208AE091E00E9454021D2DBB24B394F12C60
S1130C30A7C0892C801A0E94AD0385E791E00E9429
S1130C409E0361E082E00E94B10380E891E00E948B
S1130C509E03FFEF21EE34E0F15020403040E1F7F5
S1130C6000C000007E0185E0E80EF11C1CE00E943B
S1130C70BA028F3FE1F3F70181937F010E9492034F
S1130C80FFEF22E537E0F15020403040E1F700C0AB
S1130C900000612F82E00E94B1038AE20E94920365
S1130CA08FEF90E7E2E081509040E040E1F700C030
S1130CB000001F5F1031D9F644E050E0BE016F5FC1
S1130CC07F4F86E091E00E943C0244E0BE016F5FEA
S1130CD07F4FCE0105960E94D208813029F50E94EB
S1130CE0AD0383E591E00E949E0361E082E00E94EF
S1130CF0B10385E791E00E949E03FFEF24E33CE00B
S1130D00F15020403040E1F700C0000061E083E48E
S1130D100E94C3030E94FA090E94AD0300E01D2D46
S1130D206894FF24F1F82CC00F5F0E94AD038CE897
S1130D3091E00E949E0361E082E00E94B10389E693
S1130D4091E00E949E03882D0E9492038FEF99E602
S1130D50E8E181509040E040E1F700C000000E94CB
S1130D60AD038A94033008F466CF61E08AE091E031
S1130D700E9454021D2DBB24B394F12C01C0F12C0C
S1130D80FF2009F44FCE01E00F2EF7E05F2EF02D87
S1130D906894EE24E3F80F2EFAE03F2EF02D0F2E88
S1130DA0F6E08F2EF02D0F2EF3E07F2EF02D6894B9
S1130DB0662462F80F2EF5E04F2EF02DACC1FA0137
S1130DC03197EB30F10508F0AAC1E65DFF4F0C94B2
S1130DD01A0A882309F404C10E2D9DC10E94AD0393
S1130DE087E991E00E949E0361E082E00E94B103E2
S1130DF0F1E0FF1205C087EA91E00E949E0307C05C
S1130E0022E0F21204C087EB91E00E949E038F2D32
S1130E100E94F408182F3FEF80E792E031508040A1
S1130E209040E1F700C00000113309F47CC1123393
S1130E3009F47BC1133309F47AC1143341F4E2E0B9
S1130E40FE1609F476C1F1E0FF1285C174C11F3F9B
S1130E5099F00E94AD0387EC91E00E949E032FEF6E
S1130E6034E38CE0215030408040E1F700C00000C2
S1130E701153143008F44FC180918E02882309F471
S1130E80ADCF49C10E94AD0383ED91E00E949E0362
S1130E9061E082E00E94B10386EE91E00E949E032D
S1130EA08F2D0E94F408182F9FEFE0E7F2E0915095
S1130EB0E040F040E1F700C00000813309F43DC197
S1130EC0823309F43CC1833309F43BC1843309F40C
S1130ED03AC18F3F99F00E94AD0387EC91E00E94E4
S1130EE09E032FEF34E38CE0215030408040E1F743
S1130EF000C000001153143008F40DC180918E021B
S1130F00882309F4BFCF07C10E94AD0383EF91E0AA
S1130F100E949E0361E082E00E94B10386E092E0B9
S1130F200E949E038F2D0E94F408182F9FEFE0E784
S1130F30F2E09150E040F040E1F700C0000081335E
S1130F4009F403C1823309F402C1803309F401C1F5
S1130F508F3F99F00E94AD0387EC91E00E949E03BD
S1130F602FEF34E38CE0215030408040E1F700C0A3
S1130F7000001053133008F4CEC080918E028823F1
S1130F8019F2C9C06F2D872D0E94130901E0C3C057
S1130F906F2D862D0E94130901E0BDC06F2D842D95
S1130FA00E94130901E0B7C06F2D882D0E94130918
S1130FB092E0F91609F4A8C002E0ADC06F2D852DAA
S1130FC00E94130902E0A7C06F2D832D0E9413090C
S1130FD001E0A1C06F2D8A2D0E9413090E2D9BC024
S1130FE00E94AD0387E192E00E949E038FED0E9470
S1130FF0920383E40E9492036C2D81E00E94B1036A
S1131000EFEFF1EE24E0E150F0402040E1F700C0C2
S113101000008F2D0E94F4083FE79AE1E6E031508A
S11310209040E040E1F700C0000090918E029130C2
S113103009F46CC010ED180F1A3080F00E94AD0353
S113104087EC91E00E949E03FFEF24E33CE0F15023
S113105020403040E1F700C000004FC00E949203DE
S11310608F2D0E94F4089FE7EAE1F6E09150E040FA
S1131070F040E1F700C0000090918E02913009F435
S113108047C000ED080F0A3080F00E94AD0387ECE2
S113109091E00E949E032FEF34E38CE02150304016
S11310A08040E1F700C0000028C00E949203110FA5
S11310B0812F880F880F180F010F80E40E94F50913
S11310C09FEFE1EEF4E09150E040F040E1F700C022
S11310D00000802F0E94F5090E94AD0385E292E092
S11310E00E949E032FEF34E38CE021503040804077
S11310F0E1F700C0000001110DC080918E02882329
S113110009F46ECF0E2D07C001E005C00E2D03C0FB
S11311100E2D01C00E2D80918E02402F50E08130A3
S113112009F04DCE57CC072DF6CF062DF4CF042D64
S1131130F2CF082DF0CF02E0EECF082DECCF052D35
S1131140EACF0E2DE8CF032DE6CF0C2DE4CF0A2DE8
S1131150E2CF02E0E0CF0E94AD0387EC91E00E9471
S11311609E039FEFE4E3FCE09150E040F040E1F7A0
S113117000C00000D0CF1F920F920FB60F9211241F
S11311808F939F9380918F029091900201969093F8
S1131190900280938F029F918F910F900FBE0F90BA
S11311A01F9018954423D1F0FC013081FB0120816C
S11311B0321316C0FC013196DB011196415050E008
S11311C04F5F5F4F480F591F04C021919D91291310
S11311D009C0E417F507C9F781E0089581E008958F
S11311E080E0089580E00895CF93C82F80918F0206
S11311F090919002803A9F4010F0C13049F0809164
S11312008F0290919002883B9B4038F0C23029F4C1
S113121081E080938E028FEF04C00E94BA028F3F58
S113122029F3CF9108954F925F926F927F928F929C
S11312309F92AF92BF92CF92DF92EF92FF920F9361
S11312401F93CF93DF93B62E00E010E0D0E0C82EBA
S1131250D12C0F2EF6E14F2EF02D0F2EF7E15F2E3D
S1131260F02D0F2EF5E16F2EF02D0F2EF4E17F2ED1
S1131270F02D0F2EF3E18F2EF02D0F2EF2E19F2E85
S1131280F02D0F2EF1E1AF2EF02D0E94AD03F601EB
S11312903397E830F105D8F5EB5CFF4F0C941A0A4C
S11312A086E392E00E949E0301E311E2DA2D2FC04F
S11312B08FE392E00E949E0302E312E2D92D27C03D
S11312C088E492E00E949E0303E313E2D82D1FC03A
S11312D081E592E00E949E0304E314E2D72D17C037
S11312E08AE592E00E949E0305E315E2D62D0FC025
S11312F080E692E00E949E0307E317E2D52D07C023
S113130088E692E00E949E0306E316E2D42D8D2F18
S11313100E94F5092FEF80E792E021508040904031
S1131320E1F700C000008FEF0E94F509813029F435
S113133085E792E00E949E0304C088E792E00E9441
S11313409E0361E082E00E94B1038CE792E00E9478
S11313509E038B2D0E94F408C82F2FEF80E792E0A4
S1131360215080409040E1F700C00000C13321F4D7
S1131370812F0E94F50921C0C23321F4802F0E94DD
S1131380F5091BC0CF3FA1F0C033B9F00E94AD03F3
S113139087EC91E00E949E032FEF84E39CE02150B0
S11313A080409040E1F700C00000C053C33028F0F3
S11313B080918E02882309F468CFDF91CF911F9129
S11313C00F91FF90EF90DF90CF90BF90AF909F90E0
S11313D08F907F906F905F904F90089587B3806B4C
S11313E087BB8DB181658DB908958FB9779BFECF89
S11313F08FB108958EE48CBF83B7886083BF83B7B1
S11314008F7B83BF83B7816083BF83B78D7F83BFA7
S113141083B7846083BF789489B7826089BF089555
S113142083B78E7F83BF83B78D7F83BF83B78B7F63
S113143083BF0895EE0FFF1F0590F491E02D0994EA
S1071440F894FFCF4A
S11314443738392F3435362A3132332D41303D2B58
S113145457656C636F6D6520746F20736D6172746E
S113146400686F6D652073797374656D004C6F67E4
S1131474696E20666F720066697273742074696D94
S113148465005365742041646D696E2070617373E3
S11314940041646D696E20706173733A0050617326
S11314A473205361766564005365742047756573CE
S11314B474205061737300477565737420506173AD
S11314C4733A0053657373696F6E2054696D656F65
S11314D47574004C6F67696E20626C6F636B65642E
S11314E40077616974203230207365636F6E6473AE
S11314F40053656C656374206D6F6465203A003035
S11315043A41646D696E20313A47756573740057C6
S1131514726F6E6720696E7075742E0041646D6914
S11315246E206D6F646500456E746572205061733E
S1131534733A005269676874207061737300577258
S11315446F6E672050617373005472696573206C05
S11315546566743A004775657374206D6F6465003D
S1131564456E74657220706173733A0057726F6EBE
S113157467207061737300313A526F6F6D3120329A
S11315843A526F6F6D3200333A526F6F6D332034B9
S11315943A4D6F72652000333A526F6F6D332034C5
S11315A43A526F6F6D340057726F6E6720696E70B4
S11315B4757400313A526F6F6D3420202020323A12
S11315C4545620202000333A41432E20343A444FC9
S11315D44F5200313A5365742074656D70657261BD
S11315E4747572652000323A436F6E74726F6C20A6
S11315F420303A524554005365742074656D702E3E
S11316043A5F5F200054656D70657261747572652C
S11316142053656E7400526F6F6D3120533A00523B
S11316246F6F6D3220533A00526F6F6D3320533A0B
S113163400526F6F6D3420533A00545620533A00CD
S1131644446F6F7220533A0041697220436F6E6491
S11316542E20533A004F4E004F464600312D4F6E14
S111166420322D4F666620302D524554000072
S9030000FC
