S0120000536C61766520636F64652E737265635C
S11300000C945A000C9477000C9477000C947700AD
S11300100C9477000C9477000C9477000C94770080
S11300200C9477000C9477000C94D5020C94770010
S11300300C9477000C9477000C9477000C94770060
S11300400C9477000C9477000C9477000C94770050
S11300500C947700FD011002230236025C0249026F
S11300606F02F001F001F001F001F001F001F00184
S1130070F001F001820287028C0291029D02960235
S1130080A202F001F001F001F001F001F001F00131
S1130090F001F001A702AC02B102B602C202BB0237
S11300A0C702F001F001F001F001F001F001F001EC
S11300B0F001CC0211241FBECFE5D8E0DEBFCDBFD6
S11300C010E0A0E6B0E0E6E6F9E002C005900D928B
S11300D0A236B107D9F720E0A2E6B0E001C01D9234
S11300E0A636B207E1F70E94CC010C94B1040C943B
S11300F000003E9A3F9A379A329A319A0895369A76
S1130100349BFECF349A84B125B190E0922B0895AC
S1130110823419F118F4813439F008958334B1F13B
S1130120843409F44CC00895413059F42AB381E071
S113013090E002C0880F991F6A95E2F7822B8ABB70
S113014008952AB381E090E002C0880F991F6A9550
S1130150E2F7809582238ABB0895413059F427B38E
S113016081E090E002C0880F991F6A95E2F7822B24
S113017087BB089527B381E090E002C0880F991FE0
S11301806A95E2F78095822387BB0895413059F43C
S113019024B381E090E002C0880F991F6A95E2F7CA
S11301A0822B84BB089524B381E090E002C0880FC1
S11301B0991F6A95E2F78095822384BB08954130A4
S11301C059F421B381E090E002C0880F991F6A9529
S11301D0E2F7822B81BB089521B381E090E002C055
S11301E0880F991F6A95E2F78095822381BB089551
S11301F0823419F118F4813439F008958334B1F15B
S1130200843409F44CC00895413059F42BB381E08F
S113021090E002C0880F991F6A95E2F7822B8BBB8E
S113022008952BB381E090E002C0880F991F6A956E
S1130230E2F7809582238BBB0895413059F428B3AB
S113024081E090E002C0880F991F6A95E2F7822B43
S113025088BB089528B381E090E002C0880F991FFD
S11302606A95E2F78095822388BB0895413059F45A
S113027025B381E090E002C0880F991F6A95E2F7E8
S1130280822B85BB089525B381E090E002C0880FDE
S1130290991F6A95E2F78095822385BB08954130C2
S11302A059F422B381E090E002C0880F991F6A9547
S11302B0E2F7822B82BB089522B381E090E002C072
S11302C0880F991F6A95E2F78095822382BB08956F
S11302D08234D9F018F4813431F04DC0833439F1CB
S11302E08434B9F148C029B381E090E0062E02C0FD
S11302F0880F991F0A94E2F730E08223932302C007
S1130300959587956A95E2F7089526B381E090E084
S1130310062E02C0880F991F0A94E2F730E0822368
S1130320932302C0959587956A95E2F7089523B3C0
S113033081E090E0062E02C0880F991F0A94E2F72C
S113034030E08223932302C0959587956A95E2F75E
S1130350089520B381E090E0062E02C0880F991F13
S11303600A94E2F730E08223932302C0959587959F
S11303706A95E2F7089580E0089541E00E948800BC
S1130380089541E00E94F800089540E00E94F800BA
S113039008950E94680108950E9479000E946103F3
S11303A00E94590362E084E40E94BD0161E084E498
S11303B00E94BD0163E084E40E94BD0164E084E422
S11303C00E94BD0165E084E40E94BD0166E084E40E
S11303D00E94BD0167E084E40E94BD01CFEFD0E03C
S11303E08FEF0E945C0390E0FC017197E033F1050C
S11303F0B8F7E65DFF4F0C94AB0464E084E40E941C
S1130400C901882341F064E084E40E94C901813079
S113041019F4C1E001C0CD2F8C2F0E945C03E0CF02
S113042065E084E40E94C901882341F065E084E426
S11304300E94C901813019F4C1E001C0CD2F8C2F75
S11304400E945C03CDCF66E084E40E94C901882346
S113045041F066E084E40E94C901813019F4C1E0EE
S113046001C0CD2F8C2F0E945C03BACF67E084E4D7
S11304700E94C901882341F067E084E40E94C90115
S1130480813019F4C1E001C0CD2F8C2F0E945C0390
S1130490A7CF62E084E40E94C901882341F062E0AE
S11304A084E40E94C901813019F4C1E001C0CD2F58
S11304B08C2F0E945C0394CF63E084E40E94C90102
S11304C0882341F063E084E40E94C901813019F477
S11304D0C1E001C0CD2F8C2F0E945C0381CF61E06D
S11304E084E40E94C901882341F061E084E40E940D
S11304F0C901813019F4C1E001C0CD2F8C2F0E94B5
S11305005C036ECF64E084E40E94C10169CF65E0BE
S113051084E40E94C10164CF66E084E40E94C101C6
S11305205FCF67E084E40E94C1015ACF0E94610357
S113053062E084E40E94C10153CF63E084E40E943A
S1130540C1014ECF61E084E40E94C10149CF64E05F
S113055084E40E94C50144CF65E084E40E94C5019F
S11305603FCF66E084E40E94C5013ACF67E084E4AB
S11305700E94C50135CF0E94770362E084E40E94A3
S1130580C5012ECF63E084E40E94C50129CF61E058
S113059084E40E94C50124CF8FEF0E945C0390E0A5
S11305A090936100809360001BCF1F920F920FB64F
S11305B00F9211242F933F934F935F936F937F93E5
S11305C08F939F93AF93BF93EF93FF9380916300B7
S11305D08F5F80936300809163008A3008F458C071
S11305E0109263000E947F00BC0180E090E00E94B2
S11305F0B00320E030E040E85EE30E943E040E9445
S11306008103709365006093640080916000909111
S11306106100209164003091650001962817390724
S113062040F062E084E40E94C10181E080936200B2
S11306302FC08091600090916100209164003091FE
S1130640650001978217930738F062E084E40E9402
S1130650C501109262001CC02091600030916100BD
S113066080916400909165002817390789F480917E
S11306706200813029F462E084E40E94C10108C070
S113068080916200811104C062E084E40E94C5018B
S1130690FF91EF91BF91AF919F918F917F916F9156
S11306A05F914F913F912F910F900FBE0F901F902C
S11306B01895BE9A6E9A08958FB9779BFECF8FB125
S11306C008958EE48CBF83B7886083BF83B78F7B24
S11306D083BF83B7816083BF83B78D7F83BF83B7B5
S11306E0846083BF789489B7826089BF089583B793
S11306F08E7F83BF83B78D7F83BF83B78B7F83BF99
S113070008950E941D0488F09F5798F0B92F9927E7
S1130710B751B0F0E1F0660F771F881F991F1AF0E8
S1130720BA95C9F714C0B13091F00E943704B1E012
S113073008950C943704672F782F8827B85F39F011
S1130740B93FCCF3869577956795B395D9F73EF481
S113075090958095709561957F4F8F4F9F4F089529
S1130760E89409C097FB3EF4909580957095619547
S11307707F4F8F4F9F4F9923A9F0F92F96E9BB27FD
S11307809395F695879577956795B795F111F8CF79
S1130790FAF4BB0F11F460FF1BC06F5F7F4F8F4FE4
S11307A09F4F16C0882311F096E911C0772321F0DA
S11307B09EE8872F762F05C0662371F096E8862F72
S11307C070E060E02AF09A95660F771F881FDAF7C9
S11307D0880F9695879597F9089597F99F6780E80C
S11307E070E060E008959FEF80EC089500240A947F
S11307F01616170618060906089500240A941216F8
S11308001306140605060895092E0394000C11F42A
S1130810882352F0BB0F40F4BF2B11F460FF04C0D7
S11308206F5F7F4F8F4F9F4F089557FD9058440F30
S1130830551F59F05F3F71F04795880F97FB991F3B
S113084061F09F3F79F087950895121613061406F8
S1130850551FF2CF4695F1DF08C016161706180685
S1130860991FF1CF86957105610508940895E89460
S1130870BB2766277727CB0197F908950E94510477
S11308800C9404040E94F60338F00E94FD0320F047
S1130890952311F00C94ED030C94F30311240C94A0
S11308A038040E94150470F3959FC1F3950F50E02E
S11308B0551F629FF001729FBB27F00DB11D639F0E
S11308C0AA27F00DB11DAA1F649F6627B00DA11DB4
S11308D0661F829F2227B00DA11D621F739FB00D5A
S11308E0A11D621F839FA00D611D221F749F3327CA
S11308F0A00D611D231F849F600D211D822F762F63
S11309006A2F11249F5750409AF0F1F088234AF03F
S1130910EE0FFF1FBB1F661F771F881F91505040AB
S1130920A9F79E3F510580F00C94ED030C94380414
S11309305F3FE4F3983ED4F3869577956795B79532
S1130940F795E7959F5FC1F7FE2B880F911D96954C
S1130950879597F90895EE0FFF1F0590F491E02D08
S10909600994F894FFCF96
S1050966180073
S9030000FC
